:020000040800F2
:1000000000000220511C0008710900087309000853
:100010007509000877090008790900080000000048
:100020000000000000000000000000007B09000844
:100030007D090008000000007F0900088109000810
:10004000A11C0008A11C0008A11C0008A11C00089C
:10005000A11C0008A11C0008A11C0008A11C00088C
:10006000A11C0008A11C0008A11C0008A11C00087C
:10007000A11C0008A11C0008A11C0008A11C00086C
:10008000A11C0008A11C0008A11C0008A11C00085C
:10009000A11C0008A11C0008A11C0008A11C00084C
:1000A000A11C0008A11C0008A11C0008A11C00083C
:1000B000A11C0008A11C0008A11C0008A11C00082C
:1000C000A11C0008A11C0008A11C0008A11C00081C
:1000D000A11C0008A11C0008A11C0008A11C00080C
:1000E000A11C0008A11C000800000000A11C0008C1
:1000F000A11C0008A11C0008A11C0008A11C0008EC
:10010000A11C0008A11C0008A11C0008A11C0008DB
:10011000A11C0008A11C0008A11C0008A11C0008CB
:10012000A11C0008A11C0008A11C0008A11C0008BB
:10013000A11C0008A11C0008A11C0008A11C0008AB
:1001400000000000000000000000000000000000AF
:10015000A11C0008A11C0008A11C0008A11C00088B
:10016000A11C0008A11C0008A11C0008A11C00087B
:10017000A11C0008A11C0008A11C0008A11C00086B
:10018000A11C0008A11C0008A11C0008A11C00085B
:10019000A11C0008A11C0008A11C0008A11C00084B
:1001A000A11C0008A11C0008A11C0008A11C00083B
:1001B000A11C0008A11C0008A11C0008A11C00082B
:1001C000A11C0008A11C0008A11C0008A11C00081B
:1001D000A11C0008A11C0008A11C0008A11C00080B
:1001E000A11C0008A11C0008A11C0008A11C0008FB
:1001F000A11C0008A11C0008A11C0008A11C0008EB
:10020000A11C0008A11C0008A11C0008A11C0008DA
:10021000A11C0008A11C0008A11C0008A11C0008CA
:10022000A11C0008A11C0008A11C0008000000007F
:10023000A11C0008A11C000800000000A11C00086F
:10024000A11C0008A11C0008A11C0008A11C00089A
:10025000A11C0008A11C0008A11C0008A11C00088A
:10026000A11C0008A11C0008A11C0008A11C00087A
:10027000A11C0008A11C0008A11C0008000000002F
:10028000A11C0008A11C0008A11C0008000000001F
:1002900000000000A11C000810B5054C237833B9FC
:1002A000044B13B10448AFF300800123237010BD49
:1002B0003C04002000000000081E000808B5034BA5
:1002C0001BB103490348AFF3008008BD00000000E4
:1002D00040040020081E000880B59CB0BFF34F8F7B
:1002E000BFF36F8F684B0021C3F85012BFF34F8FDD
:1002F000BFF36F8F5A6942F400325A61BFF34F8FD8
:10030000BFF36F8FC3F88410BFF34F8FD3F88020F3
:1003100043F6E076C2F3C904C2F34E32A507520198
:1003200002EA060C284621464CEA0007013900F192
:100330004040C3F860724F1CF6D1203A12F1200FF2
:10034000EED1BFF34F8F5A6942F480325A61BFF346
:100350004F8FBFF36F8F00F079FB022000F016FD86
:1003600000230093494BDA6A22F00102DA62DB6A69
:1003700003F001030093464B9A6942F440429A61AC
:100380009A6902F440420092009A9A699404FCD55A
:100390004FF480334FF0010E0520A02102220424E7
:1003A00008251692189217941995CDE909E30023B0
:1003B000CDE9140109A80C9310931B931A93CDE96E
:1003C000122201F005F800B1FEE703234FF03F0CC5
:1003D0004FF480622146CDE901C34023CDE90305F6
:1003E00001A8CDE90533CDE9072301F00DFB00B1EC
:1003F000FEE700F0BBF900B1FEE7BFF34F8FBFF39C
:100400006F8F214B5A6922F400325A61C3F85002AF
:10041000BFF34F8FBFF36F8FC3F88400BFF34F8FCD
:100420005A6922F480325A61BFF34F8FD3F880208B
:1004300043F6E076C2F3C904C2F34E32A507520177
:1004400002EA060C284621464CEA0007013900F171
:100450004040C3F874724F1CF6D1203A12F1200FBD
:10046000EED1BFF34F8FBFF36F8F0A4B00221A609C
:10047000094B0A4A1B6813604FF01042126882F35E
:1004800008889847FEE700BF00ED00E00004005830
:100490000048025810E000E00400009058040020DA
:1004A0007B4B2DE9F04FD3F8D42091B0794D09243E
:1004B00042F480420026784F0BA9C3F8D420284686
:1004C000D3F8D4204FF040084FF00A0BDFF8D0A14A
:1004D00002F480424FF400790092009ADA6F42F4FD
:1004E0008042DA67DA6F22F48042DA67D3F8E020DC
:1004F00042F02002C3F8E020D3F8E02002F020020E
:100500000192019AD3F8E02042F00802C3F8E020FB
:10051000D3F8E02002F008020292029AD3F8E02019
:1005200042F02002C3F8E020D3F8E02002F02002DD
:100530000392039AD3F8E02042F02002C3F8E020AF
:10054000D3F8E02002F020020492049AD3F8E020CD
:1005500042F02002C3F8E020D3F8E02002F02002AD
:100560000592059AD3F8E02042F04002C3F8E0205B
:10057000D3F8E02002F040020692069AD3F8E02079
:1005800042F08002C3F8E020D3F8E02002F08002BD
:100590000792079AD3F8E02042F08002C3F8E020E7
:1005A000D3F8E02002F080020892089AD3F8E02005
:1005B00042F04002C3F8E020D3F8E02002F040020D
:1005C0000992099AD3F8E02042F04002C3F8E020F3
:1005D0004FF48062D3F8E03003F040030A930A9BA3
:1005E0000223CDE90B230323CDE90D630F9400F023
:1005F000DBFA01230BA93846CDF82C800D93CDF8FA
:100600003CB000F0D1FA4FF400630BA923480B93E0
:100610000D960F9400F0C8FA04230BA950460F94CE
:100620000B9300F0C1FA0BA92846CDF82C90CDF819
:100630003CB000F0B9FA08230BA950460F940B9375
:1006400000F0B2FA80230BA928460F940B9300F018
:10065000ABFA0BA93846CDF82C9000F0A5FA0BA9FF
:100660002846CDF82C8000F09FFA4FF480430BA968
:1006700038460B9300F098FA32460F215C2000F0C8
:100680003DFA5C2000F06CFA11B0BDE8F08F00BFBD
:10069000004402580014025800180258000C025876
:1006A000001C025800B54FF4407395B04FF04072F3
:1006B00011480C9305230F920222069300230B92FC
:1006C00006A913930093049303926A46CDE90D3370
:1006D000CDE91133102302934FF48003059340F2C8
:1006E0000113019341F2883300F0D9FD003018BFA7
:1006F000012015B05DF804FB5C04002000B54FF448
:10070000407395B041F2883217480C93062306A92E
:1007100006930023CDE90D330F930B931393CDE98B
:10072000113300F0BCFCE8B940F2022302224FF47E
:10073000800104900C48CDE900331023CDE902324A
:1007400005236A46CDE905134FF0407306A90F93C0
:1007500041F2883300F0A3FD003018BF012015B02E
:100760005DF804FB0120FAE75C0400202DE9F0436A
:100770007D4C9DB07D4B2046236000F074FC074605
:1007800008B10124ECE0FFF78BFE01250323C4E947
:1007900001351023E3604FF0006393FAA3F3B3FA3B
:1007A00083F34FF440762046E761013B2361402309
:1007B000C4E90567236200F0F7FB0028E1D14FF49C
:1007C00080774FF06609099041F2883205906946BA
:1007D0000D900697CDF80090CDE90700CDE90B000C
:1007E000204600F05CFC0028CBD14FF0990841F284
:1007F000883269462046CDF8008000F050FC002881
:10080000BFD141F28832694620460696CDF8009065
:1008100000F045FC0028B4D141F2883269462046F8
:10082000CDF8008000F03BFC0028AAD135231790BA
:10083000139041F288321B900EA914970E93CDE9C4
:100840001500CDE91900204600F029FC002898D1B8
:10085000FFF728FF002894D1B723149617900E9322
:1008600013901B90CDE91500CDE91900FFF746FF65
:10087000002886D141F288320EA9204600F00FFCF4
:1008800000287FF47EAFFFF70DFF00287FF479AFDB
:1008900085234FF440764FF04075ADF800000E937D
:1008A0000223139041F288320EA914961795CDE9D0
:1008B0001500CDE91830CDE91A002B4800F0EFFB08
:1008C00000287FF45EAF41F288326946264800F086
:1008D00085FC00287FF455AFFFF710FF0446002881
:1008E0007FF44FAF812341F288320EA91E480E9348
:1008F000BDF8003023F0F0031B051B0D43F400434B
:1009000043F08003ADF8003000F0C9FB00287FF40D
:1009100038AF41F288326946134800F003FC0028E2
:100920007FF42FAFED236A460EA90F480E934FF4C4
:1009300040631B9415934FF4405314961193052371
:10094000CDE9164513934FF000454FF08043CDE9B4
:100950000044CDE9195300F0F7FC002818BF01242A
:1009600020461DB0BDE8F0835C040020005000521A
:100970007047FEE7FEE7FEE7FEE770477047704707
:1009800000F092B81849194810B5D1F8883043F4EE
:100990007003C1F88830164B1A6842F001021A60E1
:1009A00000221A611C68204018609A61DA611A629C
:1009B0009A62DA621A635A639A63DA631A645A644F
:1009C000186820F4802018601A660A4B1B681B0CFC
:1009D0001B04B3F1005F02D2074B01221A604FF0F3
:1009E00000638B6010BD00BF00ED00E07FEDF6EA14
:1009F000004402580010005C08810051704700005C
:100A000038B50F4B0546187808B9012038BD4FF4AA
:100A10007A730C4AB3FBF0F31068B0FBF3F000F00C
:100A2000ADF804460028F0D10F2DEED80246294635
:100A30004FF0FF3000F062F8034B20461D60E5E701
:100A400008000020000000200C00002010B503204A
:100A500000F042F800F03CFF0F49104A8B69C3F3E5
:100A60000323D35C03F01F03D8400D4B18608B6940
:100A700003F00F03D35C03F01F03D840094B186049
:100A80000F20FFF7BDFF044618B9FFF7B7FF204658
:100A900010BD0124FBE700BF00440258201E0008DF
:100AA0000000002004000020034A044B11681B785A
:100AB0000B441360704700BFA8040020080000200A
:100AC000014B1868704700BFA8040020014B18684C
:100AD000000C70470010005C074A0002D36800F465
:100AE000E06023F4E0631B041B0C43F0BF6343F49A
:100AF00000330343D360704700ED00E0164B70B540
:100B0000DC684FF0FF36C4F30224C4F10705231D4F
:100B1000042D28BF0425062B06FA05F38CBF033CE1
:100B20000024002821EA030303FA04F306FA04F47C
:100B300022EA040443EA04034FEA0313DBB206DBB0
:100B400000F1604000F5614080F8003370BD00F0B6
:100B50000F00024A1354F9E700ED00E014ED00E045
:100B6000002808DB4209012300F01F0003FA00F00F
:100B7000014B43F82200704700E100E00138B0F17A
:100B8000807F0AD2064BF021064A5860002082F886
:100B90002310072298601A6070470120704700BF39
:100BA00010E000E000ED00E04FF0B04C00232DE934
:100BB000F74F724EE246DFF8D0B10A6832FA03F41A
:100BC00002D103B0BDE8F08F4FF0010E0EFA03FE24
:100BD0001EEA020200F0BD804C6824F01004022CD2
:100BE00014D14FEAD30803F007090F2500EB88085A
:100BF0004FEA8909D8F8204005FA09F524EA0505E5
:100C00000C6904FA09F42C43C8F820404FEA430861
:100C10004FF003094C6809FA08F9056804F0030469
:100C20006FEA090904FA08F409EA05052C4304608F
:100C30004D6825F01005013D012D11D88468CD685F
:100C400009EA040405FA08F525438560446824EAA6
:100C50000E0E4C68C4F300149C4044EA0E04446039
:100C6000C46809EA04098C6804FA08F444EA09042F
:100C7000C4604C68E4006CD5414D03F0030E4FF0A6
:100C80000F08D5F8F4404FEA8E0E44F00204C5F880
:100C9000F440D5F8F44023F0030505F1B04504F025
:100CA000020405F580650194019C08FA0EF4D5F85C
:100CB000089029EA0408334CA0424CD004F5806423
:100CC000A0424AD004F58064A04248D0584548D09C
:100CD00004F50064A04246D004F58064A04244D0EC
:100CE00004F58064A04242D004F58064A04240D064
:100CF00004F58064A0423ED004F58064A0420CBF9D
:100D000009240A2404FA0EF444EA0804AC60D5432A
:100D10004F683468FF034CBF14432C4034604F6865
:100D20007468BF034CBF14432C4074604F68DCF8F8
:100D30000040FF024CBF14432C40CAF800404F68EB
:100D4000DAF80440BF0254BF05EA04022243CCF89B
:100D50000420013331E70024D4E70124D2E7022440
:100D6000D0E70324CEE70424CCE70524CAE7062411
:100D7000C8E70724C6E70824C4E700BF800000587E
:100D80000044025800000258000C025838B5104CBC
:100D9000E36813F0040FE36805D103F00703181AA2
:100DA00018BF012038BD23F007031843E060FFF7A8
:100DB00087FE054663689B0401D50020F2E7FFF734
:100DC0007FFE401BB0F57A7FF4D90120EAE700BF2F
:100DD000004802584B6A2DE9F04733B1B2F1406F39
:100DE00003D08B6A0468013B23618B690C6A002B7A
:100DF00067D00568002C35D08B68EB61CC694B6AF5
:100E000005688F69D1F820C0D1F83480D1F810E09E
:100E10000E68D1E90BA9A4B144EA0A04144344EAD8
:100E2000090444EA08042343CC6843EA0E0343EA76
:100E30000C0323433B434C69334343EA84436B61D4
:100E40002AE04AEA0904144344EA0804234343EA33
:100E50000E0343EA0C033B4333434E6943EA8646A1
:100E60006E612CE04E69CC69D1F80090B604D1F8DF
:100E700024804F6BD1E90BECACB11C43CB6814431D
:100E800044EA090444EA080444EA0E0444EA0C046F
:100E90003C431C4334436C61B2F1406F0FD0036894
:100EA0004A689A610BE043EA0903134343EA0803E3
:100EB00043EA0E0343EA0C033B4333436B61BDE853
:100EC000F08744B303688C68DC61CC69D1F8248076
:100ED00005688E69D1F820C04B6BD1F810E0D1E9DC
:100EE0000B796CB13C43144344EA09042343CC68B6
:100EF00043EA080343EA0E0343EA0C0323439AE759
:100F000047EA09042243134343EA080343EA0E0372
:100F100043EA0C03A0E7CD694B6A7DB12B43CD6A50
:100F2000046813432B430D6B2B434D6B2B43CD6850
:100F30002B434D6943EA85436361ADE7002BBED087
:100F4000CC6A0068234313430A6B13434A6B134371
:100F50004A6943EA82434361B1E72DE9F041069DC6
:100F600004460F461646984621688A683A4214BFDE
:100F700001220022B24201D1002011E06B1CF4D00A
:100F8000FFF79EFDA0EB0800A84201D8002DEBD191
:100F90000423012084F84130636C43F0010363644F
:100FA000BDE8F0817047000037B50446FFF788FDC3
:100FB0000546002C4FD094F84030012B4DD0012332
:100FC00084F8403094F8412002F0FF033AB984F8E5
:100FD00040302046FFF7E6FF41F28833A3642068E3
:100FE000A1680268013922F4706242EA01222021DC
:100FF00002600022A36C204600932B46FFF7ADFF52
:1010000020BB2168E569E3680A682B43256A22F062
:101010007F422B43656822F0D00243EA0563134305
:101020000B602168D4E905324D681343226943EA15
:1010300002430B4A2A4013434B602268136843F073
:10104000010313600123606484F84130002384F8B5
:10105000403003B030BD0120FBE70220F9E700BFBC
:10106000FEF8E0FF704710B50446A0B190F840309C
:10107000012B12D00268012380F84030136823F05E
:1010800001031360FFF7EEFF0020606484F8410065
:1010900084F8400010BD0120FCE70220FAE72DE9AA
:1010A000F34704468A469146FFF70AFD94F840301C
:1010B0008046012B34D00123022784F8403094F875
:1010C0004160F6B29E4229D100220346CDF800903D
:1010D00020216264204684F84170FFF73EFF0546F8
:1010E000A8B9024651462046FFF774FEDAF82430CC
:1010F0005BB9CDF800904346324639462046FFF7AB
:101100002CFF054618B92368DF6084F8416000238E
:1011100084F84030284602B0BDE8F0873D46F6E747
:101120000225F7E72DE9F341044688461746FFF705
:10113000C7FC94F840300646012B4DD001232568AA
:1011400084F8403094F84100C0B2984242D1002364
:101150006364B8F1000F38D0122384F841302B6952
:101160000133E3622B69C4F824800133A3626B6905
:1011700023F040636B61E36A9BB900973346012219
:1011800002212046FFF7E9FE10B923680222DA6047
:10119000012384F84130002384F8403002B0BDE8D8
:1011A000F08100973346012204212046FFF7D5FE47
:1011B0000028EDD1636A1B7885F82030636A01331B
:1011C0006362E36A013BE362D5E7636C43F00803C3
:1011D0006364E0E70220DEE70220DFE72DE9F34168
:1011E000044617468846FFF76BFC25680646AA6941
:1011F00094F84030012B50D0012384F8403094F80B
:101200004100C0B2984246D100236364B8F1000F98
:101210003CD0222384F841302B690133A3632B692E
:10122000C4F83080013363636B6923F0406343F09B
:1012300080636B6123689A61A36B9BB90097334607
:10124000012202212046FFF788FE10B923680222FE
:10125000DA60012384F84130002384F8403002B082
:10126000BDE8F08100973346012206212046FFF7B2
:1012700074FE0028EDD195F82020236B1A70236BA3
:1012800001332363A36B013BA363D5E7636C43F096
:1012900008036364E0E70220DEE70220DFE72DE9D0
:1012A000F7430446984689461646FFF709FC94F82A
:1012B00040300746012B45D0012384F8403094F894
:1012C0004150EDB29D423BD142230022CDF8008037
:1012D0002021626484F8413003462046FFF73DFE3A
:1012E00040BB2368204632689A62236872685A625B
:1012F0002368B268DA62216833690A6843F48003BC
:1013000022F4400213434FF000620B604946F36839
:10131000C9F82830FFF75EFDCDF800803B462A462D
:1013200008212046FFF719FE20B923680822DA6059
:1013300084F84150002384F8403003B0BDE8F083C6
:101340000220F7E70220F8E7F7B5044617460E46F5
:10135000FFF7B6FB94F840200346012A36D001225D
:1013600084F8402094F84120012A2DD100228221C6
:101370002046626484F84110A16C00912021FFF79F
:10138000ECFD0546D0B922687968136823F008039C
:101390000B4313607B68082B0AD123683A681A63F1
:1013A00010222368DA602268136843F48013136004
:1013B0004FF0406231462046FFF70CFD002384F8D1
:1013C0004030284603B0F0BD0225F7E70225F8E7D4
:1013D000F8B5044608B9012090E00368DD075ED443
:1013E0002368980700F1AC802368DA0623D5AB4B5D
:1013F0001A69996A02F03802082A07D0182A40F0C0
:10140000008101F00302012A40F0FB801B68DB052C
:1014100002D5E369802BDED1FFF758FB41F20303CD
:101420009E4A9842216A00F2E580536823F0F8430F
:1014300043EA816353602368190700F11B81236825
:101440009A0600F1408123685D0722D5944D2B68F0
:1014500043F480732B60FFF733FB06462B68DA05F5
:1014600040F15681A2688D4B012A40F058811A6FD5
:1014700042F001021A67A368002B00F06781FFF7B2
:101480001FFB864D064641F288372B6F9B0740F1C4
:101490005681606A002840F0698100202EE07F4B71
:1014A0001A69996A02F03802102A05D0182A0AD15E
:1014B00001F00302022A06D11B68990390D56368E4
:1014C000002B8DD187E76268744BB2F5803F16D14F
:1014D0001A6842F480321A6063680BB3FFF7F0FABF
:1014E0006E4D064641F288372B689A033FF578AF78
:1014F000FFF7E6FA801BB842F6D90320F8BD3AB9E7
:101500001A6822F480321A601A6822F48022E2E714
:10151000B2F5A02F1A68F4D142F480221A60D7E7FE
:10152000FFF7CEFA5D4D064641F288372B689B03E4
:101530007FF556AFFFF7C4FA801BB842F6D9DCE757
:10154000564B1A69996A12F0380203D0182A1BD137
:101550008E0719D11B685D0703D5E368002B3FF4A4
:101560003AAFFFF7B3FA41F203034C4A98422169BC
:10157000536895BF23F47C3323F0FE4343EA0133E1
:1015800043EA016353602FE7444DE2682B680AB3D6
:1015900023F0190313432B60FFF792FA06462B68DA
:1015A000580711D5FFF792FA41F2030322699842D6
:1015B0006B6895BF23F47C3323F0FE4343EA023388
:1015C00043EA02636B600FE7FFF77AFA801B022899
:1015D000E5D992E723F001032B60FFF771FA064685
:1015E0002B6859077FF500AFFFF76AFA801B0228C6
:1015F000F6D982E7D36823F07C5343EA0163D360D2
:1016000019E7E369254D23B32B6843F080032B6072
:10161000FFF756FA06462B68DF050DD5FFF756FA99
:1016200041F20303226A98420CD86B6823F0F84316
:1016300043EA82636B60FEE6FFF742FA801B0228F2
:10164000E9D95AE7EB6823F07C5343EA0263EB6085
:10165000F1E62B6823F080032B60FFF731FA064692
:101660002B68D8057FF5E7AEFFF72AFA801B022822
:10167000F6D942E76369094DA3B16B6F43F00103EB
:101680006B67FFF71DFA06466B6F9B073FF5D7AEFA
:10169000FFF716FA801B0228F6D92EE700440258FD
:1016A000004802586B6F23F001036B67FFF708FADD
:1016B00006466B6F9F077FF5C2AEFFF701FA801BEE
:1016C0000228F6D919E7A369804D83B12B6843F44A
:1016D00080532B60FFF7F4F906462B6898043FF51A
:1016E000B2AEFFF7EDF9801B0228F6D905E72B68AB
:1016F00023F480532B60FFF7E3F906462B68990427
:101700007FF5A1AEFFF7DCF9801B0228F6D9F4E6DD
:10171000FFF7D6F9801B64287FF6A0AEEDE63AB954
:101720001A6F22F001021A671A6F22F00402A1E672
:10173000052A1A6FF5D142F004021A6797E6FFF7FF
:10174000BFF9801BB8427FF6A0AED6E6FFF7B8F926
:101750005E4D064641F288372B6F98077FF599AEAC
:10176000FFF7AEF9801BB842F6D9C6E6574D2B6994
:1017700003F03803182B7AD02B68022823F08073EB
:101780002B6067D1FFF79CF906462B6899015BD463
:10179000AB6AA26A23F47C7323F003031343E26A67
:1017A00043EA0213AB62636BA26B013B013A5B023B
:1017B00012049BB202F4FE021343226B013AC2F3FD
:1017C00008021343E26B013A120602F0FE42134391
:1017D0002B63EB6A23F00103EB626B6BA26C23F4C7
:1017E0007F4323F0F80343EAC2036B63EB6A226C86
:1017F00023F00C031343EB62EB6A626C23F00203E9
:10180000324C1343EB62EB6A43F48033EB62EB6AD6
:1018100043F40033EB62EB6A43F48023EB62EB6A40
:1018200043F00103EB622B6843F080732B60FFF7FA
:1018300047F9054623689A013FF52FAEFFF740F9B7
:10184000401B0228F6D958E6FFF73AF9801B022818
:101850009BD952E6FFF734F904462B689B017FF5CC
:101860001CAEFFF72DF9001B0228F6D945E601282A
:10187000AA6A2B6B3FF442AE02F00301A06A8142D8
:101880007FF4A9ADC2F30512E16A8A427FF4A3ADE9
:10189000226BC3F30801013A91427FF49CAD626B65
:1018A000C3F34621013A91427FF495ADA26BC3F395
:1018B0000641013A91427FF48EADE06BC3F30663BB
:1018C0000138181A18BF012018E600BF004402585A
:1018D000464B10B51A6902F03802102A00F08480D5
:1018E000182A0CD00AB1424810BD1A68414812F0BB
:1018F000200FF9D01B68C3F3C103D840F4E7996AFD
:10190000986ADA6AC0F305105C6B0028ECD007EE29
:10191000900A02F00102C4F3CC00B7EE006AF8EEC0
:10192000E76A424307EE902A01F00302012AFAEE29
:10193000E97A02D00FD3022A48D01B6BC3F3080305
:1019400007EE103AB8EEC77A77EE277A77EE867A06
:101950009FED296A37E01A68920627D51968254A4B
:10196000C1F3C1011B6BCA40C3F3080307EE102A81
:10197000F8EEC75A85EEA67A06EE903AF8EEE66AD9
:1019800076EEA77A77EE867A184B67EE877A1B6B2E
:10199000C3F34623013307EE103AF8EEC76A87EE29
:1019A000A67AFCEEC77A17EE900A9DE71B6BC3F38D
:1019B000080307EE103AB8EEC77A77EE277A77EE8B
:1019C000867A9FED0E6A86EE267ADDE71B6BC3F3FF
:1019D000080307EE103AB8EEC77A77EE277A77EE6B
:1019E000867A9FED076AEEE706487DE700440258D5
:1019F00000093D000090D0030024744A0024744C78
:101A000020BCBE4B40787D012DE9F0410D460446D7
:101A100010B90120BDE8F081884A136803F00F0374
:101A20008B42C0F0928023685E0700F19A802368A1
:101A300018070BD5824A6069D16901F070018842AC
:101A400004D9D36923F070030343D3612368D90613
:101A50000BD57B4AA069D16901F4E061884204D9C1
:101A6000D36923F4E0630343D36123689A060BD55B
:101A7000734AE069116A01F07001884204D9136A5F
:101A800023F070030343136223689B070BD56C4A52
:101A9000E068916901F00F01884204D9936923F04D
:101AA0000F03034393612368DF0768D423689E070D
:101AB00000F19B80614A136803F00F03AB4200F210
:101AC000A2802368580700F1AA80236819070BD564
:101AD0005B4A6069D16901F07001884204D2D36920
:101AE00023F070030343D3612368DA060BD5544A0D
:101AF000A069D16901F4E061884204D2D36923F47A
:101B0000E0630343D36123689B060BD54C4AE0692D
:101B1000116A01F07001884204D2136A23F0700345
:101B200003431362FFF7D4FE454B464A9B69C3F358
:101B30000323D35C03F01F03D840434B1860434B8F
:101B4000BDE8F0411868FEF75BBF136823F00F0390
:101B50000B431360136803F00F038B427FF459AFFC
:101B600061E7374A2069916901F0700188427FF688
:101B70005EAF936923F070030343936157E7304BE3
:101B8000A1689A6922F470620A439A6161681A68CE
:101B900002291DD112F4003F3FF43BAF1A6941F214
:101BA0008838274E22F007020A431A61FEF788FFA1
:101BB00007463369626803F03803B3EBC20F3FF4A2
:101BC00075AFFEF77DFFC01B4045F2D9032021E72A
:101BD000032902D112F0007FDEE7012902D112F4BD
:101BE000807FD9E712F0040FD6E7154AE0689169C3
:101BF00001F00F018842BFF45DAF936923F00F033A
:101C00000343936156E7136823F00F032B431360DC
:101C1000136803F00F03AB427FF4FBAE51E7084AB1
:101C20002069916901F070018842BFF44EAF936959
:101C300023F070030343936147E700BF0020005285
:101C400000440258201E0008000000200C00002064
:101C5000DFF834D0002103E00C4B5B5843500431D3
:101C60000B480C4B42189A42F6D30B4A02E0002371
:101C700042F8043B094B9A42F9D3FEF783FE00F089
:101C800011F8FEF729FB704700000220401E0008F3
:101C9000000000203C0400203C040020D004002070
:101CA000FEE7000070B50D4E0D4D761BB61006D048
:101CB0000024013455F8043B9847A642F9D1094E57
:101CC000094D761B00F0A0F8B61006D000240134B0
:101CD00055F8043B9847A642F9D170BD341E000860
:101CE000341E00083C1E0008341E0008024B13B1CD
:101CF000024800F005B87047000000000D1D000804
:101D0000002301461A46184600F01EB838B50A4CA2
:101D10000A4D641BA4100AD004F18043013B05EB7B
:101D20008305013C55F804399847002CF9D1BDE8EA
:101D3000384000F06FB800BF401E00083C1E00088D
:101D4000704700BF704700BF2DE9F8432B4D064692
:101D5000286898460F469146FFF7F2FF284B1C680B
:101D6000D4F84831002B3DD05A681F2A0DDC02F10F
:101D7000010C16BB0232C3F804C0286843F8227075
:101D8000FFF7E0FF0020BDE8F8831E4B7BB34FF464
:101D9000C870AFF30080034648B3D4F8482100214F
:101DA000C0E900214FF0010CC4F848010A46C0F810
:101DB0008811C0F88C11002EDCD003EB82010124C5
:101DC000C1F88890D3F8880194402043022EC3F8CC
:101DD0008801C1F80881CDD1D3F88C110C43C3F828
:101DE0008C41C7E704F5A673C4F84831BCE72868FE
:101DF000FFF7A8FF4FF0FF30C5E700BF3804002011
:101E0000301E000800000000F8B500BFF8BC08BC98
:101E10009E467047F8B500BFF8BC08BC9E467047A8
:101E20000000000001020304010203040607080980
:101E300010000020ED1C0008BD02000899020008F7
:101E40000090D0030090D0030100000010000000BB
:101E500000000000FC02002064030020CC030020EE
:101E60000000000000000000000000000000000072
:101E70000000000000000000000000000000000062
:101E80000000000000000000000000000000000052
:101E90000000000000000000000000000000000042
:101EA0000000000000000000000000000000000032
:101EB0000000000000000000000000000000000022
:101EC0000000000000000000000000000000000012
:101ED0000000000000000000000000000000000002
:101EE00000000000000000000000000000000000F2
:101EF00000000000000000000100000000000000E1
:101F00000E33CDAB34126DE6ECDE05000B000000A5
:101F100000000000000000000000000000000000C1
:101F200000000000000000000000000000000000B1
:101F300000000000000000000000000000000000A1
:101F40000000000000000000000000000000000091
:0C2270000000000000000000AC04002092
:0200000490006A
:1000000000000824990600900D4E0090114E0090BB
:10001000154E0090194E00901D4E009000000000FB
:10002000000000000000000000000000F11201903C
:10003000214E00900000000081130190F909019009
:10004000E9060090E9060090E9060090E9060090B4
:10005000E9060090E9060090E9060090E9060090A4
:10006000E9060090E9060090E9060090E906009094
:10007000E9060090E9060090E9060090E906009084
:10008000E9060090E9060090E9060090E906009074
:10009000E9060090E9060090E9060090E906009064
:1000A000E9060090E9060090E9060090E906009054
:1000B000E9060090E9060090E9060090E906009044
:1000C000E9060090E9060090E9060090E906009034
:1000D000E9060090254E0090E9060090E9060090A0
:1000E000E9060090E906009000000000E906009093
:1000F000E9060090E9060090E9060090E906009004
:10010000E9060090E9060090E9060090E9060090F3
:10011000E9060090E9060090314E0090E906009053
:10012000E9060090E9060090E9060090E9060090D3
:10013000E9060090E9060090E9060090E9060090C3
:1001400000000000000000000000000000000000AF
:10015000E9060090E9060090E9060090E9060090A3
:10016000E9060090E9060090E9060090E906009093
:10017000E9060090E9060090E9060090E906009083
:10018000E9060090E9060090E9060090E906009073
:10019000E9060090E9060090E9060090E906009063
:1001A0003D4E0090E9060090494E0090E90600900F
:1001B000E9060090E9060090E9060090E906009043
:1001C000E9060090E9060090E9060090E906009033
:1001D000E9060090E9060090E9060090E906009023
:1001E000E9060090E9060090E9060090E906009013
:1001F000E9060090E9060090E9060090E906009003
:10020000E9060090E9060090E9060090E9060090F2
:10021000E9060090E9060090E9060090E9060090E2
:10022000E9060090554E0090614E009000000000DD
:10023000E9060090E906009000000000E906009041
:10024000E9060090E9060090E9060090E9060090B2
:10025000E9060090E9060090E9060090E9060090A2
:10026000E9060090E9060090E9060090E906009092
:10027000E9060090E9060090E90600900000000001
:10028000E9060090E9060090E906009000000000F1
:0802900000000000E9060090E7
:1002A00010B5054C237833B9044B13B10448AFF3B0
:1002B00000800123237010BD485B00240000000073
:1002C000DC81029008B5034B1BB103490348AFF32F
:1002D000008008BD000000004C5B0024DC8102901F
:1002E00001F0FF01102A2BDB10F0070F08D010F8E7
:1002F000013B013A8B422DD010F0070F42B3F6D1EB
:10030000F0B441EA012141EA014122F007047FF003
:1003100000070023F0E80256083C85EA010586EA5A
:10032000010685FA47F5A3FA87F586FA47F6A5FA96
:1003300087F68EB9EED1F0BC01F0FF0102F00702A2
:1003400032B110F8013B013A83EA010313B1F8D14D
:100350000020704701387047002D06BF354603382E
:10036000073815F0010F07D1013015F4807F02BF67
:10037000013015F4C03F0130F0BC0138704700BFB8
:1003800010F8012B11F8013B012A28BF9A42F7D03F
:10039000D01A704753B94AB9002908BF00281CBFBA
:1003A0004FF0FF314FF0FF3000F074B9ADF1080CA1
:1003B0006DE904CE00F006F8DDF804E0DDE9022383
:1003C00004B070472DE9F047089D04468E46002B87
:1003D0004DD18A42944669D9B2FA82F252B101FAF9
:1003E00002F3C2F1200120FA01F10CFA02FC41EA09
:1003F000030E94404FEA1C48210CBEFBF8F61FFA8E
:100400008CF708FB16E341EA034306FB07F1994228
:100410000AD91CEB030306F1FF3080F01F819942DB
:1004200040F21C81023E63445B1AA4B2B3FBF8F0B5
:1004300008FB103344EA034400FB07F7A7420AD93C
:100440001CEB040400F1FF3380F00A81A74240F264
:1004500007816444023840EA0640E41B00261DB1CF
:10046000D4400023C5E900433146BDE8F0878B4204
:1004700009D9002D00F0EF800026C5E900013046C3
:100480003146BDE8F087B3FA83F6002E4AD18B429D
:1004900002D3824200F2F980841A61EB0303012047
:1004A0009E46002DE0D0C5E9004EDDE702B9FFDE33
:1004B000B2FA82F2002A40F09280A1EB0C014FEADE
:1004C0001C471FFA8CFE0126200CB1FBF7F307FB3B
:1004D000131140EA01410EFB03F0884208D91CEBDE
:1004E000010103F1FF3802D2884200F2CB8043467B
:1004F000091AA4B2B1FBF7F007FB101144EA01445A
:100500000EFB00FEA64508D91CEB040400F1FF31E8
:1005100002D2A64500F2BB800846A4EB0E0440EAD6
:1005200003409CE7C6F12007B34022FA07FC4CEADF
:10053000030C20FA07F401FA06F31C43F9404FEAD2
:100540001C4900FA06F3B1FBF9F8200C1FFA8CFEE7
:1005500009FB181140EA014108FB0EF0884202FA3B
:1005600006F20BD91CEB010108F1FF3A80F08880FC
:10057000884240F28580A8F102086144091AA4B2B9
:10058000B1FBF9F009FB101144EA014100FB0EFE3A
:100590008E4508D91CEB010100F1FF346CD28E4569
:1005A0006AD90238614440EA0840A0FB0294A1EBFA
:1005B0000E01A142C846A64656D353D05DB1B3EB57
:1005C000080261EB0E0101FA07F722FA06F3F14087
:1005D0001F43C5E9007100263146BDE8F087C2F12E
:1005E0002003D8400CFA02FC21FA03F391400143A6
:1005F0004FEA1C471FFA8CFEB3FBF7F007FB1036DF
:100600000B0C43EA064300FB0EF69E4204FA02F48A
:1006100008D91CEB030300F1FF382FD29E422DD9DD
:10062000023863449B1B89B2B3FBF7F607FB163312
:1006300041EA034106FB0EF38B4208D91CEB010192
:1006400006F1FF3816D28B4214D9023E6144C91A12
:1006500046EA004638E72E46284605E70646E3E622
:100660001846F8E64B45A9D2B9EB020864EB0C0E2C
:100670000138A3E74646EAE7204694E74046D1E73B
:10068000D0467BE7023B614432E7304609E76444E9
:10069000023842E7704700BFDFF834D0002103E0A2
:1006A0000C4B5B58435004310B480C4B42189A4298
:1006B000F6D30B4A02E0002342F8043B094B9A426E
:1006C000F9D309F0E7F826F0FBFC03F0A5FD70472D
:1006D000000008243CBE02900000002448010024D1
:1006E000485B002434720224FEE70000704700BF1C
:1006F000704700BF08B501F0D5FEBDE8084001F025
:1007000059BE00BF01F0D0BE4068704741607047DD
:100710004FF0E020084B094AD0F8FC1D41F08071F1
:10072000C0F8FC1DD3F8B01F0A43C3F8B02F1A68F5
:1007300042F001021A607047001000E055CEACC5CF
:10074000511A01EB5301B1FBF3F07047014B5868AC
:10075000704700BF001000E0704700BF10B50446AE
:100760000C2126F0C6FB204610BD00BF03680C4AD2
:100770001B6910B5044649B193420DD1094B586825
:10078000A26863689B1A1844606010BD934205D14B
:10079000044B5868A06010BD9847F1E79847F9E707
:1007A0004D070090001000E0704700BF00000000FF
:1007B00000B585B008220023002069469FED067B26
:1007C000CDE902238DED007B08F074FF05B05DF8E4
:1007D00004FB00BFAFF30080E00100001001000047
:1007E00030B585B000200D46144601A90190CDE931
:1007F000020008F0EDFF019820B10120DDE902239D
:100800002A60236005B030BD10B50446042126F0EF
:1008100070FB204610BD00BF08210C4808B509F048
:1008200087FF012801D10A4B18604021094809F0CF
:100830007FFF012801D1064B98604021064809F04E
:1008400077FF012801D1024BD86008BD001802587B
:10085000645B00240004025800000258022803D000
:10086000032813D048B170470D4B40210D489A68BA
:10087000B2FA82F2520909F061BF094B08210A4815
:100880001A68B2FA82F2520909F058BF044B4021AB
:100890000648DA68B2FA82F2520909F04FBF00BF87
:1008A000645B00240004025800180258000002583B
:1008B000022803D0032813D048B170470D4B4021C4
:1008C0000D489A68003A18BF012209F037BF094B5A
:1008D00008210A481A68003A18BF012209F02EBF01
:1008E000044B40210648DA68003A18BF012209F09B
:1008F00025BF00BF645B00240004025800180258A2
:1009000000000258022803D0032809D020B1704704
:100910004021054809F016BF0821044809F012BF1C
:100920004021034809F00EBF000402580018025885
:100930000000025800207047012380F8741080F8EE
:1009400075307047002070470A1E034B416418BF82
:1009500001221A70704700BF8B6F0224002070477D
:10096000836B084603B11847704700BF4FF6FF700E
:10097000704700BF704700BF08B5094B1B888B420A
:1009800008D8084B1B88934204D80748074B0180BE
:100990001A8008BD064B9E21064A074826F046FBF2
:1009A000806F0224826F0224866F0224886F0224E3
:1009B00074820290D88202901C83029010B5044683
:1009C00014F0B6FE23682046D3F8AC30BDE81040E2
:1009D000184700BF01F042BE01F046BE10B501F05D
:1009E00005FF12480023C0F88430BFF34F8FD0F8C2
:1009F000803043F6E074C3F34E3CC3F3C90E4FEAB4
:100A00004C1C0CEA0401734641EA8372013BC0F8B6
:100A100074225A1CF8D1ACF1200C1CF1200FF0D13B
:100A2000BFF34F8FBFF36F8F10BD00BF00ED00E02D
:100A300001F0F0BD02F000B801F0EABF01F0F4BD32
:100A400014F0CEB810B50446882126F052FA20469C
:100A500010BD00BF90F877301BB1406803681B6879
:100A600018471846704700BF90F8742090F834304B
:100A70009A420B4B1A780BD04AB90A4A4FF0010C34
:100A80000949108883F800C00B88088013807047DC
:100A9000002AFCD0034A4FF0000C0349F1E700BFE5
:100AA000846F0224826F0224806F02244068044A0B
:100AB00003689B69934201D100207047184700BF2B
:100AC00035090090A9B10264003AC16318BF012240
:100AD0000C490A7002680C49D2F88C208A4206D16F
:100AE000191E0A4A436418BF012111707047194644
:100AF0001047074B40F2D221064A074810B526F0AE
:100B000095FA00BF8A6F0224490900908B6F022476
:100B1000648302909C8302901C83029008B5036852
:100B20000446174DD3F880309847236820469B6FC2
:100B3000984701F0C7F8236820461B6F98470122A9
:100B40000421104809F0FAFD012280210E4809F025
:100B5000F5FD01220D48114609F0F0FD01F0B2F853
:100B6000236820461B6FAB4207D114F0E1FD2368D8
:100B70002046D3F8AC309847F0E79847EEE700BF3F
:100B8000BD09009000000258000C025800280258CD
:100B900038B5044601F05AFF17482368E16BD3F8D3
:100BA0008850226C854219D1F9B1003A1349D3F823
:100BB0008C3018BF012212488B421249027011D1A9
:100BC000114B012261641A7004F17C052846FFF77D
:100BD0009FFD0123256184F86C3038BD094B204608
:100BE000A847F1E720469847EEE7084B40F2D221AC
:100BF000074A084826F01AFAC50A009049090090E9
:100C00008A6F0224000000D08B6F0224648302905C
:100C10009C8302901C83029008B5074B28B118688A
:100C2000012114F09FFD012008BD0146186814F051
:100C300099FD012008BD00BF8C6F022440697047F8
:100C400090F84000704700BF036B0BB10120704764
:100C5000C06A003818BF0120704700BF8068704725
:100C6000704700BF04308C460FC88CE80F007047F7
:100C7000704700BF08B5034A40F2CF11024B03484A
:100C800026F0D4F9C8840290C4840290248502908E
:100C900010B50446482126F02CF9204610BD00BFAF
:100CA0002DE9F04F85B0DFF8D0B10446654E0390D2
:100CB0000220654DCBF81000E068644F04074FF444
:100CC0007074DFF8B8A118BF20F00F00CBF8044013
:100CD0005F4C18BF1030DFF8A881DFF8A891CBF87F
:100CE00000000009CBF80C0000EB4000C0010090B0
:100CF000039823600069574B00F00F00564CC0F179
:100D00001000CBF8080000201860544B30601860C9
:100D1000534B28701960534BA8601A604FF480320F
:100D2000514B28731860012368613860CAF800309D
:100D30004E486B680AF018FED8F800301BB14C4BD7
:100D40001B68002B7CD13B6803EB430215F8221093
:100D500005EB8202012940D03368012B28D033688B
:100D6000BBB9DAF80020002A08BF022323602368F9
:100D7000022B13D02368012BDED100233C4AC9E9A2
:100D80000233C9F80430C8F80030136005B0BDE87C
:100D9000F08F002323602368022BEBD1354B4FF0FB
:100DA000FF3118680FF08AFF2368012BC4D1E4E7F4
:100DB000284B1B6803EB430315F82330002BCED1DF
:100DC0003B6803EB430315F82330002BC7D1022106
:100DD000264833600AF012FFC1E7DAF80010012953
:100DE000BAD1D9F8081001331F48D9F800C0012B37
:100DF000D0F800E001F1010001F1020188BF0023F9
:100E000049F831E009EBC1013B6000234A60D9F8A1
:100E10000C10B0FBFCF20CFB12000131C9F8080009
:100E20001148C9F80C100268DBF80C100A44026083
:100E3000039ACAF80030506C03681B6998478BE727
:100E4000012393E7A45B0024040000248C5B0024AE
:100E50007C5B0024905B0024945B0024845B002472
:100E6000805B0024885B00249C5B002454BB00242E
:100E7000745B0024E05B0024A85B0024785B002402
:100E8000985B0024BC5B0024F8B503680129294E57
:100E90000446DB6A38BF0121B3420D463AD180686F
:100EA000A84204D22368DB6AB34235D1A5686B1E21
:100EB000E269206B02EB031738B3A36B0F2B2FD91A
:100EC000036807F10806DB6831469847206B10225B
:100ED000616B03681B69984798B1236BE663A3B104
:100EE000626B937A517A1B0443EA0123117AD27A16
:100EF0000B4343EA0263226A6561043A1344A36127
:100F0000F8BD0D2384F84030E7E707F11003E26AEB
:100F1000D358F0E79847C3E7204698470546C6E709
:100F20000920054B054AA62184F84000044826F014
:100F30007DF800BF5D0C0090888502909C85029032
:100F4000248502902DE9F04F0446006B83B01546CE
:100F5000A669002800F0E380A36B072B40F2E6802F
:100F600003683146DB689847206B0822616B036891
:100F70001B699847002800F0CE80A769206B3B1DB5
:100F8000E663002800F0DB809E1B0837D4E90D23C0
:100F90009119925D8E7891F801C0360446EA0C26CC
:100FA0001643CA7846EA0266B342C0F0BF800368BF
:100FB0003946DB689847206B3246616B03681B69D2
:100FC000984710B90D2384F84030616BE763002D1A
:100FD00052D05C4A5C4BD2681D60002302EB420297
:100FE0005A4D5B4FD2012B703B60AB602B736B6132
:100FF0000092584ADFF888811360574ADFF884A1CD
:101000001360564AC8F800301160554A55481660BA
:10101000554ADFF87491136001234FF48032534E28
:10102000CAF800306B68DFF864B10AF09DFC07E095
:10103000DAF80020002A08BF022333603368DBB9E6
:10104000D9F800301BB14A4B1B68002B61D1D8F88E
:10105000003003EB430215F8221005EB8202012950
:1010600024D03B68012B0BD03B68002BE0D0002341
:1010700033603368002BE3D0012003B0BDE8F08F6C
:10108000344B1B6803EB430315F82330002BEBD1E3
:10109000D8F8003003EB430315F82330002BE3D1DD
:1010A000022130483B600AF0A9FDDDE7DAF80010C4
:1010B0000129D6D1DBF8081001332B48DBF800C03A
:1010C000012BD0F800E001F1010001F1020188BF1D
:1010D00000234BF831E00BEBC101C8F800300023CE
:1010E0004A60DBF80C10B0FBFCF201310CFB120083
:1010F000CBF80C10CBF8080012491B48C9680268ED
:101100000A440260606CCAF8003003681B699847A3
:10111000A7E7012391E70D2384F840302DE7331D25
:10112000E16A06F10802CE58114450E70920114B3C
:10113000114AA62184F84000104825F077FF3E466A
:10114000EEE700BFA85B00247C5B002404000024C1
:10115000A45B0024905B0024845B0024805B00245B
:10116000885B002454BB00249C5B0024945B002417
:10117000745B0024888502909C85029024850290EF
:101180008C5B0024785B0024985B0024BC5B00240B
:1011900043692DE9F047002B00F098800546006B6D
:1011A000AC69002800F08280AB6B072B40F2838093
:1011B00003682146DB689847286B0822696B03683F
:1011C0001B69984700286DD0AA69286B131DEC6332
:1011D00000286DD01B1B6C6BE118E45C8B784E789B
:1011E0001B0443EA06232343CC7843EA04640D2717
:1011F00043F2300639E0AB6B072B5CD9036821461C
:10120000DB689847286B0822696B03681B6998475D
:1012100008B985F84070286BAB69EC63002853D09F
:101220001C1B6A6B1319115D9C7993F805A02404AB
:1012300093F804E093F8019044EA0A2493F807C075
:1012400093F8038041EA09219A7844EA0E0442EABD
:10125000082344EA0C6446F26432B14208BF934268
:101260000CBF012300231AD0AA691444AB6A04F10D
:1012700008029A420ED26B690934013324F001044A
:10128000C5E905340028B6D1EB6A1A19195B5388F1
:101290005468E0E701212A6A0023C5E905121846CF
:1012A000BDE8F0870D2385F840308DE7231D2246E9
:1012B000E96ACC589BE70920074B084AA62185F824
:1012C0004000074825F0B2FE1C46DDE7054BEC2147
:1012D000054A034825F0AAFE888502909C85029065
:1012E00024850290E08502902C86029043692DE9C6
:1012F000F041002B00F097800446006B0E46A56974
:1013000000285DD0A36B072B40F293800368294629
:10131000DB689847206B0822616B03681B6998475C
:10132000002848D0206BA169E563002847D00A1D3A
:1013300001F1020C636B521BACEB050C4D1B9F18AB
:101340009A5C03EB050813F805E098F8015097F84C
:1013500001804EEA052EBD782D0445EA0825154387
:10136000FA7845EA026503EB0C0213F80C30527868
:1013700043EA02234A19A76A02F1080CBC4513D2BA
:1013800043F23007BE4524D146F26437BB4220D138
:101390001DBB62460132636A22F001029A42A261D9
:1013A00002D00120BDE8F0810122236A0020C4E9B7
:1013B0000523BDE8F0810D2384F84030B2E70D46E7
:1013C000E26A2946002032F805E02A44538855682D
:1013D000D0E7A261002DDDD1DBE701F10807A761AD
:1013E000F0B1A36B9D4224D803683946DB68984767
:1013F000206B2A46616B03681B69984710B90D235F
:1014000084F84030616BE76326B133462A462046B4
:10141000FFF746FCD4E9053201332A446361B9E79A
:10142000E16A3944F0E7074BB821074A074825F03D
:10143000FDFD0920064B074AA62184F84000034819
:1014400025F0F4FDE08502906086029024850290EC
:10145000888502909C85029038B500250F4B044684
:101460000360C56380F84050C0E90555C0E90755E1
:10147000C0E90955C0E90B55C0E90D55C0E9035550
:10148000C0E9015502F03CFA2A46294601200FF036
:10149000C5FB034B024620461A6038BDE087029028
:1014A000E05B00242DE9F04F0021066B83B0054678
:1014B000816180F84010002E00F0BA81836B472BC9
:1014C00040F2128233683046DB689847286B482226
:1014D000696B03681B699847002800F0BD800023F2
:1014E0002E6BAF69B146EB63002E00F0A281D5F8F8
:1014F00034800422C64908EB070B584626F050FA00
:10150000002840F0018207F108000422C149A861C7
:10151000404426F045FA002840F00A8207F10C0A00
:101520000422BD4908EB0A00C5F818A026F038FAD5
:101530000190002840F0F2819BF812409BF81120A6
:1015400024049BF8133044EA02249BF8102014432F
:1015500054EA036400F0D18107F114000422AF497A
:10156000404426F01DFA00287AD00623DDF804B0A6
:1015700007F1180085F8403040440422A84926F0BD
:101580000FFA002800F08880072385F84030544483
:101590000834B9F1000F00F0DD80AB6B0B2B40F28B
:1015A000A381D9F8003021464846DB689847286B6C
:1015B0000C22696B03681B699847002800F02281A0
:1015C00095F840A02E6BEC63DFF85C824FF00D09BC
:1015D00003E095F840A02E6BEC6304F10807002EA1
:1015E00048D0EB6B0422686B4146FB1A184426F086
:1015F000D7F9002847D0BAF1000F47D1AB6AA34210
:1016000040F2AB80043486B3EA6BD5E90D13A41A1B
:101610000B2B01EB0402095D947850784FEA0444E7
:10162000D27844EA002444EA010444EA02643C44D7
:1016300040F25A81336821463046DB689847286B70
:101640000C22696B03681B6998470028C1D14FF0D1
:101650000D0A85F84090BEE70D2385F840303EE73F
:1016600007F118004FF0010B86E7EB6A1C593C4468
:1016700004F10807E86A042241460026384426F0AF
:101680008FF90028B7D1BAF1000F66D00A2385F888
:10169000403003B0BDE8F08FBBF1000F3FF477AFEF
:1016A00007F12001B9F1000F00F00281EB6B6A6BCA
:1016B000C91AC3F13000DFF874C112F8018002EBDF
:1016C000010EC3F14001C3F1440338449EF801B058
:1016D00039441F449EF802309EF803E01B0443EA9D
:1016E0000B2343EA080343EA0E63ACFB03C302EB9C
:1016F000000C9B096B609CF802309CF801801B0475
:1017000012F800E09CF803C0501843EA082343EAAB
:101710000E0343EA0C63AB60837890F801C01B04AE
:10172000515C43EA0C230B43C17843EA0163D119AE
:10173000EB608B7848781B04D25D43EA00231343A7
:10174000CA7843EA026354442B610834B9F1000FAC
:101750007FF423AF95F840A036E704F10C0304347E
:10176000AB61002E00F0B880EB6BE41AD5E90D12E6
:1017700004F1020E04F1010C11F80480E01C11F8D0
:101780000E30032A11F80C904FEA034343EA092371
:1017900043EA080311F8008043EA08633B446B62A4
:1017A00011F80E3011F80CC04FEA03430C5D095CD0
:1017B00043EA0C2343EA040343EA01631F4440F273
:1017C0009380336839463046DB689847286B04229B
:1017D000696B03681B69984700285FD02B6BEF6328
:1017E000002B00F0AF80686B04220E4926F0D8F879
:1017F00000286BD10122AB69EF616A612B6203B0F3
:10180000BDE8F08F0D239A4685F84030DAE600BF38
:10181000BC860290748702906C8702906487029065
:101820004C8702905C87029054870290D34D6210DF
:101830003746D5F82C800422444908EB070420469B
:1018400026F0AEF800285FD107F1080004224049D5
:10185000A861404426F0A4F8002869D107F10C0AD9
:1018600004223C4908EB0A00C5F818A026F098F8B5
:101870008346002852D12469002C3ED007F1140081
:1018800004223549404426F08BF858B907F1180076
:101890004FF0010B40444FF000096EE60D2385F830
:1018A00040309BE7062307F1180085F84030F1E748
:1018B000EB6A5A581F44294BA3FB02239B096B6018
:1018C0003B6BAB603B6CEB607B6C3CE70B2385F8C0
:1018D000403003B0BDE8F08FE86A03593B446B62C7
:1018E00003591F4438447FE709201D4B1D4AA62198
:1018F00085F840001C4825F099FB1C4B40F249112B
:101900001B4A194825F092FB03201A4B184A4FF442
:101910009A7185F84000144825F088FB0520164B85
:10192000134A40F2431185F840000F4825F07EFB32
:101930000420124B0E4A4FF49E7185F840000A486D
:1019400025F074FBE86A38444EE700BFBC8602907D
:10195000748702906C87029064870290D34D621066
:10196000888502909C850290248502904087029091
:10197000E0860290C4860290288702901087029029
:1019800010B40024C0E90A2104635DF8044BFFF79A
:1019900089BD00BF10B50B680446002208469B684D
:1019A000C4E90B21984703462046A362BDE81040D6
:1019B000FFF778BD08B54B680846012B1AD0022BFB
:1019C00010D04BB9CB6859072FD183685A0703D081
:1019D00023F00703083383601A4A1B4912F0C0FD45
:1019E00040BB08BDCB681A07EFD023F00F031033BC
:1019F000CB60EAE7CB681A0703D023F00F0310335C
:101A0000CB608368190703D023F00F031033836082
:101A10000C4A0D4901F0FEFE0028E2D00B4B40F2CB
:101A20002E210B4A0B4825F001FB23F00703083356
:101A3000C360CAE7054B4FF41271054A054825F00B
:101A4000F5FA00BFA05B0024DC5B00247C870290D9
:101A500090870290248502900C4B10B41A680C4CAD
:101A60000A4424681A60A24202D35DF8044B70470E
:101A7000084BA21A1C68B2F5803F214428BF4FF4DE
:101A800080325DF8044B196009F0E8BF845B0024E4
:101A9000885B0024805B002470B51E4E0546012043
:101AA0001D4C336803EB4301034404F821008342D7
:101AB00004EB81018A601AD900221346326003EBDD
:101AC00043015A0014F82110C9B914491344284697
:101AD000CA6804EB830402EB42026168D20109F098
:101AE000C1FF0F4BBDE8704018680FF01BB903EB46
:101AF000430133605A0014F821100029E5D0022177
:101B0000284609F073FF074A01213368116003FA80
:101B100001F2DAE7905B002404000024A85B0024B3
:101B2000E05B0024A45B002472B6FEE7014B0122B7
:101B30001A607047985B0024F0B502231A4C0668BF
:101B40001A4D226831016B63194B1F68B1FBF2F328
:101B500002FB1311626802FB03F322694FEA031CC4
:101B6000E36801FB02F2A7EB030E764517D3A168E9
:101B700041EA035169640F49C3F11E034068002420
:101B800009681B0140681144084A6144D163136429
:101B900009490A4B1461D161D0601360F0BD190589
:101BA00041F010016964E6E7A85B002400100052D0
:101BB000A05B00247C5B00240B0009FF01020100F4
:101BC000002243680B491A70C9689A6011B90A4B20
:101BD00001221A60094B0A491B68C96802685B1A2E
:101BE0009A4202D3074B01221A60074B18680FF084
:101BF00099B800BFBC5B0024785B0024A05B002484
:101C0000A85B0024745B0024E05B0024034B0022EB
:101C10000221DA601960C3E901227047BC5B00242D
:101C20000121002208B508460EF0F8FF0B4B1860A2
:101C300040B10022042101200FF0A0F8084B1860E9
:101C400030B108BD074B2821074A084825F0EEF9B6
:101C5000074B2C21044A054825F0E8F9E85B0024ED
:101C6000E45B00241C8802906888029098880290A7
:101C7000F0880290024B4FF0FF3118680FF01EB849
:101C8000E85B0024014B18680FF04CB8E85B0024B7
:101C9000024B002118680FF011B800BFE85B002468
:101CA000014B18680FF03EB8E85B0024034800239E
:101CB00003491A4600680FF09BB800BFE45B00249C
:101CC0001C00002410B5002382B0074C1A4601A95D
:101CD00020680FF0CFF84FF0FF33002201A92068F1
:101CE0000FF0C8F802B010BDE45B002403685B6C21
:101CF000184700BF0120704705494FF08062054B2F
:101D00000160C3F88820BFF34F8FBFF36F8F704718
:101D1000A48A029000E100E00F4B82B00F49D3F893
:101D2000D4200F4842F010020862C3F8D420D3F840
:101D3000D42002F010020192019ADA6F42F01002F0
:101D4000DA67DA6F22F01002DA67064B4FF0806232
:101D50009A6002B0704700BF00440258ECBA0024F9
:101D60001121009000E100E040F2EF30704700BF29
:101D700009494FF08062094B10B501600446C3F871
:101D80008820BFF34F8FBFF36F8F40F6A85125F027
:101D9000B0F8204610BD00BFA48A029000E100E028
:101DA00010B504464FF0FF31D0F8A40D0EF0F0FE50
:101DB000606803681B68984778B9637A6BB1237AC7
:101DC0002BB92268204684F8A03D536A9847D4F87E
:101DD000A40DBDE810400EF0FFBE0B4BDA68002AE0
:101DE000F5D0227A002AF2D158680122023084F814
:101DF000A02D227203EBC000FFF79EFED4F8A40DC5
:101E0000BDE810400EF0E8BEBC5B002438B590F889
:101E1000A03D044643B903689B6A9847154BDA68AE
:101E20000AB1227AD2B138BD124BDA68002AFAD050
:101E3000017A0029F7D00021013AD3E9005021723C
:101E4000411CDA600230B1FBF5F205FB121103EB25
:101E5000C0005960BDE83840FFF7B2BE58680122A3
:101E6000023084F8A02D227203EBC000BDE8384098
:101E7000FFF762BEBC5B002438B58B7F0A2B3ED8CF
:101E8000DFE803F03B062A3D3D3D3D060606060021
:101E90000124B1F814C0C88A4A8B1C4B40EA0C409C
:101EA000A2EB0C025C6358640869D8631A640D687D
:101EB000082D13D00022DC61154C1A61C9680A0A8A
:101EC0004809C1F3C40102F4784200F4FC60024303
:101ED0000A439A631C6038BD0024DAE79A611A61EC
:101EE0005C620C4A0C7F42EA04620B4CDA61CA68FD
:101EF0001A625861D8601C6038BD0224C9E7074BDC
:101F00008821074A074825F091F800BF00100052C9
:101F1000010203000900010001020200348902905D
:101F2000508902909C890290F8B591F81DE0BEF1AD
:101F30000B0F00F2C180DFE81EF0630065004C006B
:101F4000BF00BF00BF00BF000C000C000C000C0065
:101F50000C00052591F81EC0BCF10B0F00F2AC80FF
:101F6000DFE80CF0524B0EAAAAAAAA06060606063D
:101F7000ACF10703032B00F2A5800526012701E041
:101F8000002637468B8A4A8B0C8BC88AD21AE41AF1
:101F900040EA0340524B1A649A611C614A685F63CD
:101FA00058640869D863DA600A68802A3BD012D87E
:101FB000202A2CD0402A2AD0042A69D10A7F45EA57
:101FC0000265484A45F40035DD615E6258611A6079
:101FD000F8BD0025BEE7B2F5807F67D0B2F5007F7F
:101FE00056D10C7F404A42EA0462DA613D4AC96830
:101FF00019625E6258611A60F8BD01263746C1E772
:102000000225A7E70125A5E702263746BAE70B7F99
:10201000334A45EA0365334B45F40035D5615662D2
:1020200050611360F8BD8A68141DDC620C7F117862
:1020300045EA046545F40035DD615E625861B1B979
:1020400051880124D869294A0139024042EA012213
:10205000DA61234AD36943F02003D361D3699B0635
:10206000FCD41023936024B31E4B1360F8BD0129E8
:102070002ED15188FF3CD8691C4A01F1FF3118BFAD
:102080000124024042EA012242F01002DA61E0E754
:102090000A7FE645124B45EA026514BF144A40F236
:1020A000012245F40035DD611A60F8BD0C7F114A4C
:1020B00099E70F4B1360F8BD0F4B67210F4A10488B
:1020C00024F0B4FF0C4B88210E4A0D4824F0AEFFDB
:1020D0000D4B4FF489710D4A094824F0A7FF00BF4A
:1020E000001000520102020009000200EF00FFFF91
:1020F000010201000A00020034890290F489029072
:102100009C89029050890290408A02905C8A0290D9
:102110001F4B20491B6870B55C6823685A698A4266
:1021200025D194F8A02D42B99B6A204698471A4BB6
:10213000DA680AB1227AF2B170BD174BDA68002A68
:10214000FAD0217A0029F7D00021013AD3E90050D2
:102150002172411CDA600230B1FBF5F205FB12116D
:1021600003EBC000BDE870405960FFF729BD204671
:10217000BDE87040104758680122023084F8A02D55
:10218000227203EBC000BDE87040FFF7D5BC00BF72
:102190008C6F02240D1E0090BC5B002470B5104BA8
:1021A0000646044600250C30602235727572706058
:1021B00044F8203B214613F0FFFB214606F55A6305
:1021C000CD6024318B42FBD186F8A05D0020C6F89B
:1021D000A45D0EF0A3FC03463046C6F8A43D70BDD6
:1021E000A48A0290012070470C20704701EB410146
:1021F00000EB81000830704701EB410100EB8100EA
:10220000083070470120704740F67420704700BFC7
:1022100040F6742303FB01000830704740F6742336
:1022200003FB010008307047012070471020704701
:1022300000EB01100830704700EB011008307047C8
:10224000084603F087B800BF034B10B5044603608F
:1022500012F01FFA204610BD5C8B0290054B10B5A2
:102260000446036012F015FA1421204624F041FEC2
:10227000204610BD5C8B0290034B10B504460360F2
:1022800012F007FA204610BD288B0290064B10B5BD
:102290000446036012F0FDF940F67C21204624F04C
:1022A00028FE204610BD00BF288B0290034B10B5BE
:1022B0000446036012F0EDF9204610BDF48A029046
:1022C000054B10B50446036012F0E3F918212046CF
:1022D00024F00FFE204610BDF48A029010B50C4A7F
:1022E00004460C4B00F6A8202260C4F8A83A12F06D
:1022F000D0F92046084B40F82C3F12F0CAF920468E
:10230000064B40F8143F12F0C4F9204610BD00BF40
:10231000908B02905C8B0290288B0290F48A029042
:1023200010B50C4C0C4A0D4B04F6A8202260C4F8E2
:10233000A83A12F0AEF92046094B40F82C3F12F0B3
:10234000A8F92046074BBDE8104040F8143F12F0B2
:10235000A0B900BFF05B0024908B02905C8B0290D0
:10236000288B0290F48A029010B50E4A04460E4B58
:1023700000F6A8202260C4F8A83A12F08AF9204694
:102380000A4B40F82C3F12F084F9094B204640F8E4
:10239000143F12F07EF9204640F6446124F0A9FD76
:1023A000204610BD908B02905C8B0290288B02908F
:1023B000F48A02902DE9F04182B0002402F0DEFDA3
:1023C000054602F0DFFD23460146224628460094DA
:1023D00018F09AFF284B294A2046294C1A6005F02C
:1023E00001F8284818F0F8FE2378BFF35B8FDB076D
:1023F00005D5254802B0BDE8F041FEF7C9BB20462F
:1024000024F079FD0028F4D0204D214B05F6E84654
:1024100005F1140005F12C0805F6A8272B60EF60E4
:102420002E61C5E9010812F035F91A4B40466B617F
:1024300012F030F9184B3846EB6212F02BF9174BBB
:1024400005F6BC20C5F8A83A05F052F82A4605F66C
:10245000BC21304605F040F8304602F07BFF1048C2
:1024600024F002FE204624F052FD074802B0BDE8E9
:10247000F041FEF78DBB00BFE86F022468780024AE
:10248000EC5B002420000024E0770024F05B0024B3
:10249000908B0290F48A0290288B02905C8B0290C1
:1024A00021230090704700BF0148FEF737BB00BFF3
:1024B000E077002470B5264B264C274E274D23602D
:1024C0003046FFF76BFE28461CF028F8244B00220C
:1024D0004FF4F0704FF48871DA621A869A6683F8C6
:1024E0006C201A67C3E903421E4C5C664FF080748F
:1024F0005C67012483F878401B4C23601B4C2080D0
:102500001B4CC3E9016520804FF48075194C1A48B3
:102510009D64C3E90522C3E90722C3E90922C3E98F
:102520000E22C3E91022C3E91322C3E91522C3E92D
:10253000172221800180114C11481249C3F88020D4
:10254000227083F834201860C3F88420D96770BDE6
:1025500064820290346A0024386A00246C78002473
:10256000E0770024010000018C6F0224806F0224B8
:10257000866F0224826F0224886F0224846F0224F3
:10258000F48302903C8202900148FFF7B5BB00BF84
:10259000386A002490F8252012B103685B69184757
:1025A000704700BF0020704781807047C18070472E
:1025B0000181704741817047704700BF704700BF7D
:1025C000704700BF704700BF704700BFB0F806C03B
:1025D0000368A2EB0C02B0F804C05B6DA1EB0C0128
:1025E00012B209B2184700BF13684FF6FF7C4FF0D4
:1025F000FF31A0F80CC0C0E907311060704700BF80
:1026000090F825201AB190F8242002B11860704784
:1026100000207047034B902283F85A2383F85823F5
:10262000704700BF00E100E0094A0A49D3680A4840
:10263000C3F30A03013B9BB20B801169C1F30A018A
:10264000013901801364536B43F0010353637047F6
:1026500000100050E8780024E6780024014BD3F8FD
:10266000AC00704700100050024B0122C3F8AC10C0
:102670005A62704700100050C0E90C128163704725
:10268000704700BF00EB8100114640680368DB68BB
:10269000184700BF10B50446482124F02AFC204604
:1026A00010BD00BF11B990F82900704708B5034A62
:1026B0004FF4B871024B034824F0B8FCB08B029081
:1026C0009C8B02903C8D029021B9406811460368B2
:1026D0001B6B1847034B4FF4B571034A034810B501
:1026E00024F0A4FC9C8B0290808D02903C8D029083
:1026F00009B9C068704708B5024A7921024B0348FE
:1027000024F094FC308F02909C8B02903C8D0290C0
:1027100010B50C4649B911461A464368C4601C6896
:102720001846A368BDE810401847034B9021034AA0
:10273000034824F07BFC00BF9C8B0290E490029045
:102740003C8D029021B9C0E90411C0E906327047FE
:1027500008B5034A8221034B034824F067FC00BFFD
:10276000C09202909C8B02903C8D029012F074BA41
:1027700090F84B3010B513B11A4B01221A701A4C55
:1027800012F076FA94F8293063B994F82A304BB9EC
:102790000123206C84F83D300EF0C4FA94F83E30EA
:1027A000CBB910BDD4E90530E169226900FB03F320
:1027B00001FB02F29342EBD394F83C0038B19B1A30
:1027C000B3FBF1F2994298BF02F1FF32626201233A
:1027D00084F82E30DCE7606C0EF0FEF9002384F8FC
:1027E0003E3010BDE47800243479002412F0FEB9A4
:1027F00012F059BB90F83D3003B9704710B54FF057
:10280000FF310446406C0EF0C3F94FF48073A4F816
:102810003D3010BD38B50C4605464FF0FF31406CD9
:1028200004EBC4040EF0B4F9686C0EF0D5F9002383
:1028300005EB840484F8283095F828300BB92B6B0D
:10284000AB6338BD14484369D90323D5002310B5C1
:10285000C0F88430BFF34F8FD0F8803043F6E07477
:10286000C3F34E3CC3F3C90E4FEA4C1C0CEA0401FF
:10287000734641EA8372013BC0F874225A1CF8D1B6
:10288000ACF1200C1CF1200FF0D1BFF34F8FBFF340
:102890006F8F10BD704700BF00ED00E010B500293C
:1028A00033D10446052A09D8DFE802F009181C21B3
:1028B0002903003B18BF012380F82D3010BD40686C
:1028C00003681B6998470028F8D00122002384F888
:1028D000292084F82C20C4E9043310BD002380F89B
:1028E000293010BD00220362C0E9042210BD00227D
:1028F0000121036280F82A10C0E9042210BD0022E1
:10290000012380F82920036210BD034BA221034A52
:10291000034824F08BFB00BF9C8B02907C940290B8
:102920003C8D029010B539BB90F82930044623B98C
:1029300094F82B3063B9012010BD1249436909682E
:1029400091F867100B44436194F82B30002BF2D0C0
:10295000A168104613685B6911639847002394F8D7
:102960002C0084F82B300028E5D194F82D30002B72
:10297000E2D184F8290010BD034BD021034A04485A
:1029800024F054FB8C6F02249C8B02905096029092
:102990003C8D029090F8283070B5FBB90122856B10
:1029A000C36082624FF4807205F5872403618285DB
:1029B00043618361C3610362436280F82E30D0E9D2
:1029C0000C263244944210D80B4A85608463184622
:1029D00081F83430C1F836200B6370BD074B40F2EC
:1029E000C511074A074824F021FB074B5221074A2B
:1029F000044824F01BFB00BFE0012001F097029087
:102A0000209802903C8D0290A8990290E49902903F
:102A1000084B4FF08062C3F88820BFF34F8FBFF39D
:102A20006F8F4FF08072C3F88820BFF34F8FBFF3D2
:102A30006F8F704700E100E0034B4FF080629A60B7
:102A40004FF080729A60704700E100E038B50446AC
:102A500012F01BF923685D6E15F016FC0146204646
:102A6000A8472368164AD3F8885095421CD1154AC6
:102A70000125D3F88C3002F57F311348C4E90F21CA
:102A8000124A0570934216D10023114A63641370F1
:102A900064684FF487200F4B0F49104A4C6459600B
:102AA0001A63C3E90D0238BD0D4A00232046A2F582
:102AB0007F31A847ECE7002120469847E8E700BFB0
:102AC000C50A009000FC03D08A6F022449090090D7
:102AD0008B6F022434790024EC78002400F40BD0AE
:102AE00000F807D010B5144C236823B3134B144AD5
:102AF0001B6C11888B420AD009F0F2FF2068036832
:102B00001B6A98470020BDE81040FDF7D1BE0D4B71
:102B1000198809F0E5FF226892F86630013382F8DF
:102B20006630FFF7C3F8206812F002FE0020BDE80F
:102B30001040FDF793BE10BD8C6F022400100050B2
:102B4000E8780024E67800242DE9F043DFF8B88027
:102B500083B001264FF47077044624E02B682846A2
:102B60005B6A98470023236229684FF490730097AB
:102B70004FF4F072D1F814902846A168C847236931
:102B800084F82C0001332361002833D02B689B6A22
:102B9000434531D168690138E060002384F82E3064
:102BA000606C0EF019F84FF0FF31206C0EF086F8D3
:102BB0004FF0FF31606C0DF0EBFF94F82E30002BDE
:102BC000EED0216A656884F82B600029C6D1636A5B
:102BD000002BC9D02A68D2E9099141450FD1686913
:102BE000C1182846C8472369616A00220B44626203
:102BF0002361B9E7E660D0E728469847CBE7284647
:102C00008847636AECE700BF3D0C0090014808B5B7
:102C1000FFF79AFF3479002438B515480025FEF7F0
:102C20001BFC144C14494FF480732A460120216088
:102C30002946A387A385256384F83E5084F82E5047
:102C4000C4E90D55C4E91055C4E90155C4E903555B
:102C5000C4E90555C4E90755C4E909550DF0DEFF7F
:102C60000346284623640DF059FF606438BD00BF59
:102C7000EC78002434790024909B02902DE9F04FE9
:102C80007E4C8DB00690A4FB03030991190A0892AB
:102C900002EB132307EE901A93420B9340F2E98064
:102CA000774BDFF8EC815B6ADFF8E8910A93069ACC
:102CB0004FF0020E089902F580700B010131CDE949
:102CC00003200A980891B3FBF0F200FB1233C2EB29
:102CD00002125B0003EB8223019309E0019BB3F531
:102CE000872F0FD3BEF1100F00F0B6800EF1020E49
:102CF000BEF10A0FF2D1069B80330393019BB3F51B
:102D0000872FF3D2019A099BCDF81CE01344DDE92B
:102D1000032103F1100C3033964602910593029B78
:102D20000CF56C76ACF1100574465F1E17F8011FA8
:102D30000435544B023497F84020043653F82100F0
:102D40006545514B14F802AC53F8211058F8223065
:102D5000494403444D4809EB234350F8220001EB5A
:102D60000A02484492F800B103EB0A02824492F846
:102D700000219AF800A14FEA92024FEADA0A4FEADC
:102D8000421242EACA2242EADB0225F8042C14F875
:102D900001AC03EB0A0200EB0A0B8A4492F8002113
:102DA0009BF800B14FEA92029AF800A14FEADB0BC0
:102DB0004FEA421242EACB2242EADA0225F8022C1A
:102DC00094F806A003EB0A0200EB0A0B8A4492F87F
:102DD00000219BF800B14FEA92029AF800A14FEA55
:102DE000DB0B4FEA421242EACB2242EADA0226F831
:102DF000042CE27913441044114493F8003190F804
:102E000000214FEA930391F800114FEAD2024FEAF2
:102E1000431343EAC22343EAD10326F8023C85D197
:102E2000029B05F1100C0EF1400E04330293059B3A
:102E300063457FF474AF049BDDF81CE00833BEF1FA
:102E4000100F0493039B03F110030393019B03F5FD
:102E5000F06301937FF44AAF069B089A03F5C073B1
:102E600006930B9B93427FF422AF4FF47073044A96
:102E7000936217EE900A0DB0BDE8F08FABAAAAAA34
:102E8000FCA500247C8900247C8500247C910024FE
:102E90007C8D0024C89B02902DE9F04F1C0A8DB058
:102EA00002EB132307EE904A08929A420790099189
:102EB0000B9380F04A81A74BA74D5A6ADFF89C928A
:102EC0000A929A6A1B69DFF898A2DFF898B2DFF8D5
:102ED00098820692019308E0079B0B9A03F5807392
:102EE0000793089B934200F03081079A089902F1FA
:102EF00080000B010131CDE902020A980891069980
:102F0000B3FBF0F200FB123301FB02F25B0003EBB8
:102F1000C203009308230593DDE900239342DBD924
:102F2000099B1344039A02F14001029A03F1200025
:102F30000432049092F83C00103312F8044C4031F3
:102F400059F82070043211F880CC55F824604744B9
:102F50005BF824405AF820004644204407EB0C0458
:102F600008EB204094F800E106EB0C0484444FEA9F
:102F7000DE0E94F800419CF800C1E4084FEA9C0C76
:102F800044EACE2444EA4C1423F8104C11F87F4C48
:102F900026442744044497F8007196F8000194F8F9
:102FA0000041FE08C008A40840EAC62040EA4410D8
:102FB00023F80E0C92F8390012F8074C59F82070DB
:102FC00011F87ECC55F8246047445BF824405AF849
:102FD00020004644204407EB0C0408EB204094F802
:102FE00000E106EB0C0484444FEADE0E94F8004145
:102FF0009CF800C1E4084FEA9C0C44EACE2444EA61
:103000004C1423F80C4C11F87D4C264427440444FE
:1030100097F8007196F8000194F80041FE08C00886
:10302000A40840EAC62040EA441023F80A0C12F82B
:10303000064C92F83A0011F87CCC59F8207055F8FB
:1030400024605AF8200047445BF82440464420445A
:1030500007EB0C0408EB204094F800E106EB0C04AD
:1030600084444FEADE0E94F800419CF800C1E40865
:103070004FEA9C0C44EACE2444EA4C1423F8084C52
:1030800011F87B4C26442744044497F8007196F8C5
:10309000000194F80041FE08C008A40840EAC620D8
:1030A00040EA441023F8060C12F8050C92F83B4055
:1030B0005BF820C055F8206059F824705AF82400B5
:1030C00046444744604411F87ACC07EB0C0408EB03
:1030D000204094F800E106EB0C04844494F800418D
:1030E0004FEADE0E9CF800C1E4084FEA9C0C44EA6B
:1030F000CE2444EA4C1423F8044C11F8794C2644AD
:103100002744044497F8007196F8000194F80041B0
:10311000FE08C008A40840EAC62040EA441023F88C
:10312000020C049883427FF405AF029B069A083391
:103130000293039B08330393009B13440093059B66
:10314000013B05937FF4E8AEC6E617EE900A0DB09A
:10315000BDE8F08FFCA500247C8500247C91002430
:103160007C8D00247C890024C89B02902DE9F04FBF
:10317000B64C89B0CDE90402A4FB03030291D9093E
:1031800002EBD31307EE901A9A42069380F058810F
:10319000AF4BB04C5A6ADFF8C4E207929A6A1B69D7
:1031A000DFF8BCC2AC48DFF8BC820392009307E0B2
:1031B000049BC0330493DDE90532934200F0408163
:1031C000059E079FF500013604990596039E01F1BF
:1031D0004003B5FBF7F207FB125506FB02F26D0048
:1031E00005EBC20208250195009D9542E0D993F8B0
:1031F0004070083193F80090083311F8085C50F8DB
:1032000027A05EF8276025445CF8297058F82990BB
:103210002E442F44D14496F8006105EB294997F8D4
:103220000051F60899F80071ED08BF0845EAC62676
:10323000029D46EA4716AE5293F8397013F8079C80
:1032400011F8075C50F827A025445EF827605CF869
:10325000297058F829902E442F44D14496F80061E3
:1032600005EB294997F80051F60899F80071ED0827
:10327000BF0845EAC626029D46EA471615446E80F9
:1032800093F83AA011F8067C039E27445EF82A9032
:10329000324413F8066CB94450F82AB05CF826A002
:1032A00099F8009158F82660BA444FEAD9095E446B
:1032B00007EB26469AF8007196F80061FF08B608F9
:1032C00047EAC92949EA4619A5F8049093F83BA0B2
:1032D00013F8056C11F8057C50F82AB05EF82A90B6
:1032E00027445CF826A058F82660B944BA445E44E6
:1032F00099F8009107EB26469AF800714FEAD90930
:1033000096F80061FF08B60847EAC92949EA461954
:10331000A5F8069093F83CA013F8046C11F8047C0F
:1033200050F82AB027445EF82A905CF826A058F896
:103330002660B944BA445E4499F8009107EB2646EA
:103340009AF800714FEAD90996F80061FF08B608AB
:1033500047EAC92949EA4619A5F8089093F83DA01B
:1033600011F8037C5EF82A90274413F8036C50F898
:103370002AB0B94499F800915CF826A058F8266064
:103380004FEAD909BA445E4407EB26469AF8007121
:1033900096F80061FF08B60847EAC92949EA4619C4
:1033A000A5F80A9093F83EA013F8026C11F8027C7D
:1033B00050F82AB027445EF82A905CF826A058F806
:1033C0002660B944BA445E4499F8009107EB26465A
:1033D0009AF800714FEAD909FF0896F8006147EAA8
:1033E000C929B60849EA4619A5F80C9093F83FA0F8
:1033F00013F8016C11F8017C5EF82A90274450F80C
:103400002AB05CF826A058F82660B944BA445E4455
:1034100099F8009107EB26469AF800714FEAD9090E
:1034200096F80061FF08B60847EAC92949EA461933
:10343000A5F80E90019D013D01957FF4D5AEB7E64C
:1034400017EE900A09B0BDE8F08F00BFABAAAAAA98
:10345000FCA50024C89B02907C8D00247C91002454
:103460007C8500247C8900242DE9F04F02EB931A1F
:103470009C09524507EE904A80F08880454BD3E97D
:1034800009981E6903E0524500F140007ED0D50046
:1034900004464FF0080E0132B5FBF9F709FB17534C
:1034A00008FB07F75B0003EBC7039E42EBD994F8D8
:1034B00000C0CD180834BEF1010E4FEADC074FEA18
:1034C0009C0C4FEAC72B4BEA4C1C47EA0C07CF5227
:1034D000434414F807CC4FEADC074FEA9C0C4FEA50
:1034E000C72B4BEA4C1C47EA0C076F8014F806CC3C
:1034F0004FEADC074FEA9C0C4FEAC72B4BEA4C1C07
:1035000047EA0C07AF8014F805CC4FEADC074FEA16
:103510009C0C4FEAC72B4BEA4C1C47EA0C07EF8088
:1035200014F804CC4FEADC074FEA9C0C4FEAC72B97
:103530004BEA4C1C47EA0C072F8114F803CC4FEAE6
:10354000DC074FEA9C0C4FEAC72B4BEA4C1C47EABE
:103550000C076F8114F802CC4FEADC074FEA9C0C91
:103560004FEAC72B4BEA4C1C47EA0C07AF8114F813
:1035700001CC4FEADC074FEA9C0C4FEAC72B4BEA21
:103580004C1C47EA0C07EF818FD17CE717EE900ABD
:10359000BDE8F08FFCA500242DE9F04F1C0A83B094
:1035A00002EB132307EE904A9A42019380F02881A0
:1035B000964BDFF85CC21F69D3E909A906E0009ABF
:1035C00000F58070019B9A4200F01A81D3004FF001
:1035D00008080132B3FBFAF40AFB1435034609FB71
:1035E00004F46D00009205EBC405AF42E7D993F8EF
:1035F000C0B04E1993F840E0B8F1010803F1080398
:103600001EFB0BFEACFB0E4E13F8084C14FB0BF428
:103610004FEA5E2EACFB04244FEA4E1E4FEA942480
:103620004EEAC42493F878E01EFB0BFBACFB0B2E98
:1036300044EA9E24A4B24C534D4493F8B9B093F895
:1036400039E013F8074C1EFB0BFE14FB0BF4ACFB2C
:103650000E2EACFB04244FEA5E2E4FEA94244FEA70
:103660004E1E4EEAC42493F879E01EFB0BFBACFB24
:103670000B2E44EA9E24A4B2748093F8BAB093F857
:103680003AE013F8064C1EFB0BFE14FB0BF4ACFBEC
:103690000E2EACFB04244FEA5E2E4FEA94244FEA30
:1036A0004E1E4EEAC42493F87AE01EFB0BFBACFBE3
:1036B0000B2E44EA9E24A4B2B48093F8BBB093F8D6
:1036C0003BE013F8054C1EFB0BFE14FB0BF4ACFBAC
:1036D0000E2EACFB04244FEA5E2E4FEA94244FEAF0
:1036E0004E1E4EEAC42493F87BE01EFB0BFBACFBA2
:1036F0000B2E44EA9E24A4B2F48093F8BCB093F855
:103700003CE013F8044C1EFB0BFE14FB0BF4ACFB6B
:103710000E2EACFB04244FEA5E2E4FEA94244FEAAF
:103720004E1E4EEAC42493F87CE01EFB0BFBACFB60
:103730000B2E44EA9E24A4B2348193F8BDB093F8D2
:103740003DE013F8034C1EFB0BFE14FB0BF4ACFB2B
:103750000E2EACFB04244FEA5E2E4FEA94244FEA6F
:103760004E1E4EEAC42493F87DE01EFB0BFBACFB1F
:103770000B2E44EA9E24A4B2748193F8BEB013F8D1
:1037800002EC93F83E401EFB0BFE14FB0BF4ACFB6B
:103790000E2EACFB04244FEA9E2E4FEA54244FEA2F
:1037A000441444EACE2493F87EE01EFB0BFBACFBF2
:1037B0000B2E44EA9E24A4B2B48193F8BFB093F8D0
:1037C0003FE013F8014C1EFB0BFE14FB0BF4ACFBAB
:1037D0000E2EACFB04244FEA5E2E4FEA94244FEAEF
:1037E0004E1E4EEAC42493F87FE01EFB0BFBACFB9D
:1037F0000B2E44EA9E24A4B2F4817FF4F6AEDEE6FA
:1038000017EE900A03B0BDE8F08F00BFFCA50024BE
:1038100081808080F0B4D0E90176C568046806FB39
:1038200005F0314B102C4FEA40009D601C60DE60BB
:103830005F6018612BD0FCB92C48086015F00700B8
:1038400021D10746586108210C46C3E907112F44CE
:10385000B5FBF4F46D005F629D6200B10134B6FB0C
:10386000F1F001FB106101B1013000FB04F4002014
:10387000DC621460F0BC7047302C12D11C48086028
:1038800015F00700DDD0C0F108075F61DBE7012F0D
:1038900017D0022F08D01748086015F00700F2D1A2
:1038A000CFE70120F0BC70471348086015F00F0007
:1038B00016D1074658614FF0100C0821C3E907C123
:1038C000C5E70E48086015F00F0005D1074658619E
:1038D0001021C3E90711BAE7C0F110075F61F7E7EC
:1038E000C0F110075F61E6E7FCA500246934009091
:1038F000993500906D310090992E00907D2C0090AC
:103900002DE9F04FDFF82CC18BB0DFF82C814FF49C
:103910000041DFF828E100233D4F4EF62F3B3D4E9E
:1039200049F2D04A3C4D44F68B493C4C3C4849F264
:10393000456202FB03F202F5004212144EF8042F16
:1039400041F62F5202FB03F202F5004212144CF82A
:10395000042F344A02FB03F202F50042121447F826
:10396000042F314A02FB03F2013302F50042B3F5A2
:10397000807F4FEA224246F8042F2C4A02FB03B212
:103980004FEA224244F8042F294A02FB03A24FEADD
:10399000224240F8042F4FEA2142494448F8042FBC
:1039A00043F34F0245F8042FC1D1DFF894E03821EA
:1039B0004FF0000C07E00CF1010C0EF1200E414617
:1039C000BCF1100F3ED0BCF1070F01F108087246A0
:1039D0004FF0010094BF002601261FFA88F300244F
:1039E000072CA1F1380594BF00270127002F00F014
:1039F0005683002E00F0538301F1400510281580F6
:103A0000D9D001330134013002329BB20131E7E7F2
:103A1000B8B100247895002478790024789900249E
:103A2000787D0024D1D4FFFF30ABFFFFD194FFFF9E
:103A300030EBFFFF78810024B8B50024789D002486
:103A4000BCAF00240023DFF870B3DFF870A380263A
:103A5000DFF86C83DFF86CE3DFF86CC3CE4F0093C4
:103A600006F14104009806F14002711CA4B206F16F
:103A7000420543080130AEF8044092B2AEF8064069
:103A800006F14304DB000090A4B2AEF800209BB224
:103A9000AEF802200194341D03F5807089B2A4B2FF
:103AA00003F2011280B2AAF80410029406F1440451
:103AB00092B2ABF80000A4B23880ABF8020003F574
:103AC000A1790394741D7880B01CA4B2AAF80610E2
:103AD00003F58171ABF80420049406F1450489B222
:103AE000BA80A4B2ABF80620FA80ADB20594B41D3A
:103AF00082B2ABF80810A4B239811FFA89F9ABF889
:103B00000A10069406F14604A8F80890F01CA4B226
:103B1000AAF80060AAF8026080B20794F41DAAF81F
:103B200008200CF1200CA4B2AAF80A20AEF8085024
:103B300003F20312089406F1470492B2AEF80A5059
:103B4000A4B2059DABF80C2008F12008099403F5F8
:103B5000A074BA810BF1200BA4B2FA812BF8122CBD
:103B600003F2431228F8204C203728F81E4C03F5A6
:103B7000C07492B228F8169CA4B227F8161CAAF8B2
